:1000000075890175800075900075A00075B0007548
:10001000800F75900F75A00F75B00F1201017580DC
:100020000F75900875A00F75B00F12010175800F44
:1000300075900F75A00875B00F12010175800F75CE
:10004000900F75A00F75B0081201017580087590AA
:100050000F75A00F75B00F1201017580007590002B
:1000600075A00075B00002006975223C02006F2087
:10007000967A20957D02007820941D20A47A1201A2
:1000800001D297120101C297D522E402008EE590B9
:10009000C2E6B409090200A375223C02007805906B
:1000A000020069E5A0B405030200B375900005A045
:1000B00002006975900075A000E5B0B4030302006A
:1000C000D6E5B0B409030200CE05B002006975B0F0
:1000D000000580020069E580B402030200E305B078
:1000E00002006975B000758000020069120101020A
:1000F000008E1201010200B375900075A00002008D
:100100007875200A020107C28CC28D758AB9758C78
:0A0110003CD28C308DFDD520EE228C
:00000001FF
